{"abi":[{"anonymous":false,"inputs":[{"indexed":true,"internalType":"address","name":"_from","type":"address"},{"indexed":true,"internalType":"address","name":"_to","type":"address"},{"indexed":false,"internalType":"uint256","name":"_value","type":"uint256"}],"name":"Deposit","type":"event"},{"anonymous":false,"inputs":[{"indexed":true,"internalType":"address","name":"_from","type":"address"},{"indexed":true,"internalType":"address","name":"_to","type":"address"},{"indexed":false,"internalType":"uint256","name":"_value","type":"uint256"}],"name":"Withdraw","type":"event"},{"inputs":[],"name":"addFunds","outputs":[],"stateMutability":"payable","type":"function"},{"inputs":[],"name":"emitLog","outputs":[{"internalType":"bytes32","name":"","type":"bytes32"}],"stateMutability":"pure","type":"function"},{"inputs":[],"name":"getAllFunders","outputs":[{"internalType":"address[]","name":"","type":"address[]"}],"stateMutability":"view","type":"function"},{"inputs":[{"internalType":"uint8","name":"idx","type":"uint8"}],"name":"getFunderAtIndex","outputs":[{"internalType":"address","name":"","type":"address"}],"stateMutability":"view","type":"function"},{"inputs":[],"name":"numOfFunders","outputs":[{"internalType":"uint256","name":"","type":"uint256"}],"stateMutability":"view","type":"function"},{"inputs":[],"name":"owner","outputs":[{"internalType":"address","name":"","type":"address"}],"stateMutability":"view","type":"function"},{"inputs":[],"name":"test3","outputs":[{"internalType":"uint256","name":"","type":"uint256"}],"stateMutability":"view","type":"function"},{"inputs":[],"name":"testNum","outputs":[{"internalType":"uint256","name":"","type":"uint256"}],"stateMutability":"view","type":"function"},{"inputs":[{"internalType":"uint256","name":"amount","type":"uint256"}],"name":"withdrawFunds","outputs":[],"stateMutability":"nonpayable","type":"function"},{"stateMutability":"payable","type":"receive"}],"bytecode":"6080604052600080546001600160a01b0319163317905534801561002257600080fd5b506103e8600155610515806100386000396000f3fe60806040526004361061008a5760003560e01c80638da5cb5b116100595780638da5cb5b1461014f578063a26759cb1461016f578063ae28f1ed14610177578063af7f2c9b1461018d578063f42c13bf146101a357600080fd5b80630a8e8e01146100965780630a93cf33146100ba578063155dd5ee1461010b5780636fbbb55d1461012d57600080fd5b3661009157005b600080fd5b3480156100a257600080fd5b506001545b6040519081526020015b60405180910390f35b3480156100c657600080fd5b506100f36100d5366004610413565b60ff166000908152600360205260409020546001600160a01b031690565b6040516001600160a01b0390911681526020016100b1565b34801561011757600080fd5b5061012b6101263660046103fa565b6101be565b005b34801561013957600080fd5b5061014261028e565b6040516100b1919061043d565b34801561015b57600080fd5b506000546100f3906001600160a01b031681565b61012b610345565b34801561018357600080fd5b506100a760015481565b34801561019957600080fd5b506100a760045481565b3480156101af57600080fd5b506448656c6c6f60d81b6100a7565b806706f05b59d3b200008111156102255760405162461bcd60e51b815260206004820152602160248201527f43616e6e6f74207769746864726177206d6f7265207468616e20302e352045546044820152600960fb1b606482015260840160405180910390fd5b604051339083156108fc029084906000818181858888f19350505050158015610252573d6000803e3d6000fd5b50604051828152309033907f9b1bfa7fa9ee420a16e124f794c35ac9f90472acc99140eb2f6447c714cad8eb9060200160405180910390a35050565b6060600060045467ffffffffffffffff8111156102ad576102ad6104c9565b6040519080825280602002602001820160405280156102d6578160200160208202803683370190505b50905060005b60045481101561033f5760008181526003602052604090205482516001600160a01b0390911690839083908110610315576103156104b3565b6001600160a01b0390921660209283029190910190910152806103378161048a565b9150506102dc565b50919050565b3360008181526002602052604090205460ff166103b757600480546001600160a01b0383166000818152600260209081526040808320805460ff191660011790558483526003909152812080546001600160a01b03191690921790915582549192906103b08361048a565b9190505550505b60405134815230906001600160a01b038316907f5548c837ab068cf56a2c2479df0882a4922fd203edb7517321831d95078c5f629060200160405180910390a350565b60006020828403121561040c57600080fd5b5035919050565b60006020828403121561042557600080fd5b813560ff8116811461043657600080fd5b9392505050565b6020808252825182820181905260009190848201906040850190845b8181101561047e5783516001600160a01b031683529284019291840191600101610459565b50909695505050505050565b60006000198214156104ac57634e487b7160e01b600052601160045260246000fd5b5060010190565b634e487b7160e01b600052603260045260246000fd5b634e487b7160e01b600052604160045260246000fdfea2646970667358221220093eac033d76d0b406ac558d7433d84e3ddc9bb49da47fd454405bbafa08c2b464736f6c63430008070033","bytecodeSha1":"889b7f2ee37485fd8ad6ddecab32bf58500cb056","compiler":{"evm_version":"istanbul","optimizer":{"enabled":true,"runs":200},"version":"0.8.7+commit.e28d00a7"},"contractName":"Faucet","language":"Solidity","natspec":{"kind":"dev","methods":{},"version":1},"opcodes":"PUSH1 0x80 PUSH1 0x40 MSTORE PUSH1 0x4 CALLDATASIZE LT PUSH2 0x8A JUMPI PUSH1 0x0 CALLDATALOAD PUSH1 0xE0 SHR DUP1 PUSH4 0x8DA5CB5B GT PUSH2 0x59 JUMPI DUP1 PUSH4 0x8DA5CB5B EQ PUSH2 0x14F JUMPI DUP1 PUSH4 0xA26759CB EQ PUSH2 0x16F JUMPI DUP1 PUSH4 0xAE28F1ED EQ PUSH2 0x177 JUMPI DUP1 PUSH4 0xAF7F2C9B EQ PUSH2 0x18D JUMPI DUP1 PUSH4 0xF42C13BF EQ PUSH2 0x1A3 JUMPI PUSH1 0x0 DUP1 REVERT JUMPDEST DUP1 PUSH4 0xA8E8E01 EQ PUSH2 0x96 JUMPI DUP1 PUSH4 0xA93CF33 EQ PUSH2 0xBA JUMPI DUP1 PUSH4 0x155DD5EE EQ PUSH2 0x10B JUMPI DUP1 PUSH4 0x6FBBB55D EQ PUSH2 0x12D JUMPI PUSH1 0x0 DUP1 REVERT JUMPDEST CALLDATASIZE PUSH2 0x91 JUMPI STOP JUMPDEST PUSH1 0x0 DUP1 REVERT JUMPDEST CALLVALUE DUP1 ISZERO PUSH2 0xA2 JUMPI PUSH1 0x0 DUP1 REVERT JUMPDEST POP PUSH1 0x1 SLOAD JUMPDEST PUSH1 0x40 MLOAD SWAP1 DUP2 MSTORE PUSH1 0x20 ADD JUMPDEST PUSH1 0x40 MLOAD DUP1 SWAP2 SUB SWAP1 RETURN JUMPDEST CALLVALUE DUP1 ISZERO PUSH2 0xC6 JUMPI PUSH1 0x0 DUP1 REVERT JUMPDEST POP PUSH2 0xF3 PUSH2 0xD5 CALLDATASIZE PUSH1 0x4 PUSH2 0x413 JUMP JUMPDEST PUSH1 0xFF AND PUSH1 0x0 SWAP1 DUP2 MSTORE PUSH1 0x3 PUSH1 0x20 MSTORE PUSH1 0x40 SWAP1 KECCAK256 SLOAD PUSH1 0x1 PUSH1 0x1 PUSH1 0xA0 SHL SUB AND SWAP1 JUMP JUMPDEST PUSH1 0x40 MLOAD PUSH1 0x1 PUSH1 0x1 PUSH1 0xA0 SHL SUB SWAP1 SWAP2 AND DUP2 MSTORE PUSH1 0x20 ADD PUSH2 0xB1 JUMP JUMPDEST CALLVALUE DUP1 ISZERO PUSH2 0x117 JUMPI PUSH1 0x0 DUP1 REVERT JUMPDEST POP PUSH2 0x12B PUSH2 0x126 CALLDATASIZE PUSH1 0x4 PUSH2 0x3FA JUMP JUMPDEST PUSH2 0x1BE JUMP JUMPDEST STOP JUMPDEST CALLVALUE DUP1 ISZERO PUSH2 0x139 JUMPI PUSH1 0x0 DUP1 REVERT JUMPDEST POP PUSH2 0x142 PUSH2 0x28E JUMP JUMPDEST PUSH1 0x40 MLOAD PUSH2 0xB1 SWAP2 SWAP1 PUSH2 0x43D JUMP JUMPDEST CALLVALUE DUP1 ISZERO PUSH2 0x15B JUMPI PUSH1 0x0 DUP1 REVERT JUMPDEST POP PUSH1 0x0 SLOAD PUSH2 0xF3 SWAP1 PUSH1 0x1 PUSH1 0x1 PUSH1 0xA0 SHL SUB AND DUP2 JUMP JUMPDEST PUSH2 0x12B PUSH2 0x345 JUMP JUMPDEST CALLVALUE DUP1 ISZERO PUSH2 0x183 JUMPI PUSH1 0x0 DUP1 REVERT JUMPDEST POP PUSH2 0xA7 PUSH1 0x1 SLOAD DUP2 JUMP JUMPDEST CALLVALUE DUP1 ISZERO PUSH2 0x199 JUMPI PUSH1 0x0 DUP1 REVERT JUMPDEST POP PUSH2 0xA7 PUSH1 0x4 SLOAD DUP2 JUMP JUMPDEST CALLVALUE DUP1 ISZERO PUSH2 0x1AF JUMPI PUSH1 0x0 DUP1 REVERT JUMPDEST POP PUSH5 0x48656C6C6F PUSH1 0xD8 SHL PUSH2 0xA7 JUMP JUMPDEST DUP1 PUSH8 0x6F05B59D3B20000 DUP2 GT ISZERO PUSH2 0x225 JUMPI PUSH1 0x40 MLOAD PUSH3 0x461BCD PUSH1 0xE5 SHL DUP2 MSTORE PUSH1 0x20 PUSH1 0x4 DUP3 ADD MSTORE PUSH1 0x21 PUSH1 0x24 DUP3 ADD MSTORE PUSH32 0x43616E6E6F74207769746864726177206D6F7265207468616E20302E35204554 PUSH1 0x44 DUP3 ADD MSTORE PUSH1 0x9 PUSH1 0xFB SHL PUSH1 0x64 DUP3 ADD MSTORE PUSH1 0x84 ADD PUSH1 0x40 MLOAD DUP1 SWAP2 SUB SWAP1 REVERT JUMPDEST PUSH1 0x40 MLOAD CALLER SWAP1 DUP4 ISZERO PUSH2 0x8FC MUL SWAP1 DUP5 SWAP1 PUSH1 0x0 DUP2 DUP2 DUP2 DUP6 DUP9 DUP9 CALL SWAP4 POP POP POP POP ISZERO DUP1 ISZERO PUSH2 0x252 JUMPI RETURNDATASIZE PUSH1 0x0 DUP1 RETURNDATACOPY RETURNDATASIZE PUSH1 0x0 REVERT JUMPDEST POP PUSH1 0x40 MLOAD DUP3 DUP2 MSTORE ADDRESS SWAP1 CALLER SWAP1 PUSH32 0x9B1BFA7FA9EE420A16E124F794C35AC9F90472ACC99140EB2F6447C714CAD8EB SWAP1 PUSH1 0x20 ADD PUSH1 0x40 MLOAD DUP1 SWAP2 SUB SWAP1 LOG3 POP POP JUMP JUMPDEST PUSH1 0x60 PUSH1 0x0 PUSH1 0x4 SLOAD PUSH8 0xFFFFFFFFFFFFFFFF DUP2 GT ISZERO PUSH2 0x2AD JUMPI PUSH2 0x2AD PUSH2 0x4C9 JUMP JUMPDEST PUSH1 0x40 MLOAD SWAP1 DUP1 DUP3 MSTORE DUP1 PUSH1 0x20 MUL PUSH1 0x20 ADD DUP3 ADD PUSH1 0x40 MSTORE DUP1 ISZERO PUSH2 0x2D6 JUMPI DUP2 PUSH1 0x20 ADD PUSH1 0x20 DUP3 MUL DUP1 CALLDATASIZE DUP4 CALLDATACOPY ADD SWAP1 POP JUMPDEST POP SWAP1 POP PUSH1 0x0 JUMPDEST PUSH1 0x4 SLOAD DUP2 LT ISZERO PUSH2 0x33F JUMPI PUSH1 0x0 DUP2 DUP2 MSTORE PUSH1 0x3 PUSH1 0x20 MSTORE PUSH1 0x40 SWAP1 KECCAK256 SLOAD DUP3 MLOAD PUSH1 0x1 PUSH1 0x1 PUSH1 0xA0 SHL SUB SWAP1 SWAP2 AND SWAP1 DUP4 SWAP1 DUP4 SWAP1 DUP2 LT PUSH2 0x315 JUMPI PUSH2 0x315 PUSH2 0x4B3 JUMP JUMPDEST PUSH1 0x1 PUSH1 0x1 PUSH1 0xA0 SHL SUB SWAP1 SWAP3 AND PUSH1 0x20 SWAP3 DUP4 MUL SWAP2 SWAP1 SWAP2 ADD SWAP1 SWAP2 ADD MSTORE DUP1 PUSH2 0x337 DUP2 PUSH2 0x48A JUMP JUMPDEST SWAP2 POP POP PUSH2 0x2DC JUMP JUMPDEST POP SWAP2 SWAP1 POP JUMP JUMPDEST CALLER PUSH1 0x0 DUP2 DUP2 MSTORE PUSH1 0x2 PUSH1 0x20 MSTORE PUSH1 0x40 SWAP1 KECCAK256 SLOAD PUSH1 0xFF AND PUSH2 0x3B7 JUMPI PUSH1 0x4 DUP1 SLOAD PUSH1 0x1 PUSH1 0x1 PUSH1 0xA0 SHL SUB DUP4 AND PUSH1 0x0 DUP2 DUP2 MSTORE PUSH1 0x2 PUSH1 0x20 SWAP1 DUP2 MSTORE PUSH1 0x40 DUP1 DUP4 KECCAK256 DUP1 SLOAD PUSH1 0xFF NOT AND PUSH1 0x1 OR SWAP1 SSTORE DUP5 DUP4 MSTORE PUSH1 0x3 SWAP1 SWAP2 MSTORE DUP2 KECCAK256 DUP1 SLOAD PUSH1 0x1 PUSH1 0x1 PUSH1 0xA0 SHL SUB NOT AND SWAP1 SWAP3 OR SWAP1 SWAP2 SSTORE DUP3 SLOAD SWAP2 SWAP3 SWAP1 PUSH2 0x3B0 DUP4 PUSH2 0x48A JUMP JUMPDEST SWAP2 SWAP1 POP SSTORE POP POP JUMPDEST PUSH1 0x40 MLOAD CALLVALUE DUP2 MSTORE ADDRESS SWAP1 PUSH1 0x1 PUSH1 0x1 PUSH1 0xA0 SHL SUB DUP4 AND SWAP1 PUSH32 0x5548C837AB068CF56A2C2479DF0882A4922FD203EDB7517321831D95078C5F62 SWAP1 PUSH1 0x20 ADD PUSH1 0x40 MLOAD DUP1 SWAP2 SUB SWAP1 LOG3 POP JUMP JUMPDEST PUSH1 0x0 PUSH1 0x20 DUP3 DUP5 SUB SLT ISZERO PUSH2 0x40C JUMPI PUSH1 0x0 DUP1 REVERT JUMPDEST POP CALLDATALOAD SWAP2 SWAP1 POP JUMP JUMPDEST PUSH1 0x0 PUSH1 0x20 DUP3 DUP5 SUB SLT ISZERO PUSH2 0x425 JUMPI PUSH1 0x0 DUP1 REVERT JUMPDEST DUP2 CALLDATALOAD PUSH1 0xFF DUP2 AND DUP2 EQ PUSH2 0x436 JUMPI PUSH1 0x0 DUP1 REVERT JUMPDEST SWAP4 SWAP3 POP POP POP JUMP JUMPDEST PUSH1 0x20 DUP1 DUP3 MSTORE DUP3 MLOAD DUP3 DUP3 ADD DUP2 SWAP1 MSTORE PUSH1 0x0 SWAP2 SWAP1 DUP5 DUP3 ADD SWAP1 PUSH1 0x40 DUP6 ADD SWAP1 DUP5 JUMPDEST DUP2 DUP2 LT ISZERO PUSH2 0x47E JUMPI DUP4 MLOAD PUSH1 0x1 PUSH1 0x1 PUSH1 0xA0 SHL SUB AND DUP4 MSTORE SWAP3 DUP5 ADD SWAP3 SWAP2 DUP5 ADD SWAP2 PUSH1 0x1 ADD PUSH2 0x459 JUMP JUMPDEST POP SWAP1 SWAP7 SWAP6 POP POP POP POP POP POP JUMP JUMPDEST PUSH1 0x0 PUSH1 0x0 NOT DUP3 EQ ISZERO PUSH2 0x4AC JUMPI PUSH4 0x4E487B71 PUSH1 0xE0 SHL PUSH1 0x0 MSTORE PUSH1 0x11 PUSH1 0x4 MSTORE PUSH1 0x24 PUSH1 0x0 REVERT JUMPDEST POP PUSH1 0x1 ADD SWAP1 JUMP JUMPDEST PUSH4 0x4E487B71 PUSH1 0xE0 SHL PUSH1 0x0 MSTORE PUSH1 0x32 PUSH1 0x4 MSTORE PUSH1 0x24 PUSH1 0x0 REVERT JUMPDEST PUSH4 0x4E487B71 PUSH1 0xE0 SHL PUSH1 0x0 MSTORE PUSH1 0x41 PUSH1 0x4 MSTORE PUSH1 0x24 PUSH1 0x0 REVERT INVALID LOG2 PUSH5 0x6970667358 0x22 SLT KECCAK256 MULMOD RETURNDATACOPY 0xAC SUB RETURNDATASIZE PUSH23 0xD0B406AC558D7433D84E3DDC9BB49DA47FD454405BBAFA ADDMOD 0xC2 0xB4 PUSH5 0x736F6C6343 STOP ADDMOD SMOD STOP CALLER ","sha1":"fef4cd6a1658efe75fa4723ceb5f09d22435a96c","source":"// SPDX-License-Identifier: MIT\npragma solidity ^0.8.7;\n\nimport \"./Owned.sol\";\nimport \"./Logger.sol\";\nimport \"./IFaucet.sol\";\n\ncontract Faucet is Owned, Logger, IFaucet {\n    // storage variables\n    mapping(address => bool) private funders;\n    mapping(uint256 => address) private LUTfunders;\n    uint256 public numOfFunders;\n\n    // @notice contract can receive Ether.\n    receive() external payable {}\n\n    event Deposit(address indexed _from, address indexed _to, uint256 _value);\n    event Withdraw(address indexed _from, address indexed _to, uint256 _value);\n\n    // MODIFIERS\n    modifier limitWithdraw(uint256 amount) {\n        require(\n            amount <= 500000000000000000,\n            \"Cannot withdraw more than 0.5 ETH\"\n        );\n        _;\n    }\n\n    // ADD FUNDS\n    function addFunds() external payable override {\n        address funder = msg.sender;\n\n        // preventing duplication\n        if (!funders[funder]) {\n            uint256 index = numOfFunders;\n            funders[funder] = true;\n            LUTfunders[index] = funder;\n            numOfFunders++;\n        }\n\n        emit Deposit(funder, address(this), msg.value);\n    }\n\n    // WITHDRAW FUNDS\n    function withdrawFunds(uint256 amount)\n        external\n        override\n        limitWithdraw(amount)\n    {\n        payable(msg.sender).transfer(amount);\n        emit Withdraw(msg.sender, address(this), amount);\n    }\n\n    // RETRIEVE FUNDER AT A SPECIFIC INDEX\n    function getFunderAtIndex(uint8 idx) external view returns (address) {\n        return LUTfunders[idx];\n    }\n\n    // RETRIEVE ALL FUNDERS\n    function getAllFunders() external view returns (address[] memory) {\n        // creating an empty address[] of size 'numOfFunders'\n        address[] memory _funders = new address[](numOfFunders);\n\n        // numOfFunders exists sequentially\n        for (uint256 i = 0; i < numOfFunders; i++) {\n            // retrieving address from the main mapping and assigning to our _funders\n            _funders[i] = LUTfunders[i];\n        }\n\n        return _funders;\n    }\n\n    // Conforming to an abstract class\n    function emitLog() public pure override returns (bytes32) {\n        return \"Hello\";\n    }\n}\n","sourcePath":"contracts/Faucet.sol","type":"contract","deployment":{"address":"0x6d48284348Dc88b6E33c025F74f2524fc4904399","chainid":"1337","blockHeight":30}}